{
  "contractName": "CloneFactory",
  "abi": [
    {
      "constant": false,
      "inputs": [
        {
          "name": "target",
          "type": "address"
        }
      ],
      "name": "createClone",
      "outputs": [],
      "payable": false,
      "stateMutability": "nonpayable",
      "type": "function"
    },
    {
      "anonymous": false,
      "inputs": [
        {
          "indexed": true,
          "name": "target",
          "type": "address"
        },
        {
          "indexed": false,
          "name": "clone",
          "type": "address"
        }
      ],
      "name": "CloneCreated",
      "type": "event"
    }
  ],
  "bytecode": "0x6060604052341561000f57600080fd5b6101f48061001e6000396000f300606060405260043610610041576000357c0100000000000000000000000000000000000000000000000000000000900463ffffffff16806357894c1b14610046575b600080fd5b341561005157600080fd5b61007d600480803573ffffffffffffffffffffffffffffffffffffffff1690602001909190505061007f565b005b6100876101b4565b600080608060405190810160405280605081526020017f3415600957600080fd5b603a8060166000396000f30036600060ff376000803681526020017f60ff73beefbeefbeefbeefbeefbeefbeefbeefbeefbeef5af4808015604a573d81526020017f80600060ff3e60fff3005b600080fd00000000000000000000000000000000008152509250836c01000000000000000000000000029150600090505b60148110156101ae57818160148110151561013d57fe5b1a7f010000000000000000000000000000000000000000000000000000000000000002838260230181518110151561017157fe5b9060200101907effffffffffffffffffffffffffffffffffffffffffffffffffffffffffffff1916908160001a9053508080600101915050610126565b50505050565b6020604051908101604052806000815250905600a165627a7a7230582065cde7287fddb59c07b8874bc709308100496fd802fdf6bf018f70d7ab450d2e0029",
  "source": "pragma solidity 0.4.18;\n\n//solhint-disable max-line-length\n\ncontract CloneFactory {\n\n  event CloneCreated(address indexed target, address clone);\n\n  function createClone(address target) public {\n    bytes memory clone = hex\"3415600957600080fd5b603a8060166000396000f30036600060ff376000803660ff73beefbeefbeefbeefbeefbeefbeefbeefbeefbeef5af4808015604a573d80600060ff3e60fff3005b600080fd00\";\n    bytes20 targetBytes = bytes20(target);\n    for (uint i = 0; i < 20; i++) {\n      clone[35 + i] = targetBytes[i];\n    }\n  }\n}\n",
  "sourcePath": "/home/pete/work/cloner/contracts/CloneFactory.sol",
  "compiler": {
    "name": "solc",
    "version": "0.4.18+commit.9cf6e910.Emscripten.clang"
  },
  "schemaVersion": "1.0.1",
  "updatedAt": "2018-02-06T03:48:47.014Z"
}